:100000000C9429010C945A010C945A010C945A0135
:100010000C945A010C945A010C945A010C945A01F4
:100020000C945A010C945A010C945A010C945A01E4
:100030000C945A010C94AD060C945A010C945A017C
:100040000C945A010C945A010C945A010C945A01C4
:100050000C945A010C945A010C945A010C946306A6
:100060000C945A010C9437070C940D070C945A0108
:100070000C945A010C945A010C945A010C945A0194
:100080000C945A010C945A010C945A010C945A0184
:100090000C945A010C945A010C945A010C945A0174
:1000A0000C945A010C945A010C945A010C945A0164
:1000B0000C945A010C945A010C945A010C945A0154
:1000C0000C945A010C945A010C945A010C945A0144
:1000D0000C945A010C945A010C945A010C945A0134
:1000E0000C945A010C9489040C94A2040C94BD0441
:1000F0000C940E050C9477050C94CF040C94B30467
:100100000C943F050C94C1040C94D9040C94E104A4
:100110000C94A6040C9431050C94DD040C94CB04CF
:100120000C94AD040C94B7040C941D050C94D304EA
:100130000C946E080C94AA040C948E040C94C405C0
:100140000C94C5040C949E0400000A0B02090C0DCB
:100150000E0807030401000000000000000000007A
:10016000000000000000000000000000000000008F
:10017000000000001211100000000000000000004C
:10018000000000000000000000000000000000006F
:100190002100240027002A002D0030003300010137
:1001A0000000040107010A010102102020080810C4
:1001B00020401020408002010201080402010102D7
:1001C00004081020408080402010080402018004B0
:1001D000020180402010080402010804020101020B
:1001E0000408102040800102040810204080000014
:1001F0002200250028002B002E00310034000201CF
:100200000000050108010B010505050507050808A3
:100210000808020202020A0A080804040404010190
:1002200001010101010103030303030303030407A5
:1002300007070C0C0C0C0C0C0C0C0202020206063C
:100240000606060606060B0B0B0B0B0B0B0B020030
:100250006E0811241FBECFEFD1E2DEBFCDBF00E09C
:100260000CBF12E0A0E0B2E0ECECF1E100E00BBF6B
:1002700002C007900D92A631B107D9F722E0A6E19E
:10028000B2E001C01D92AC3DB207E1F711E0C9E256
:10029000D1E000E006C021970109802FFE010E94F5
:1002A000DC08C832D10780E00807A9F70E946D0773
:1002B0000C94E4080C9400008F929F92AF92BF922E
:1002C000CF92DF92EF92FF92CF93209100022830DD
:1002D00061F02F3F81F0CF91FF90EF90DF90CF90B2
:1002E000BF90AF909F908F900895EEE4F2E0C4919C
:1002F000C7FDF1CF6CC028E020930002EEE4F2E0ED
:10030000C491CF3F41F3C23009F428C118F5CC2382
:1003100009F446C0C13061F710928000109281004C
:10032000209181002860209381002091810021602C
:1003300020938100E0E1F2E0E491F0E0EE0FFF1F96
:10034000E251FE4F25913491E0EBF1E0E491E0932E
:10035000C2023DC0C43009F442C108F421C1C53015
:1003600009F0C6CF109220011092210120912101A5
:1003700028602093210120912101216020932101F7
:10038000E0E1F2E0E491F0E0EE0FFF1FE251FE4FFA
:1003900025913491E0EBF1E0E491E093BC0217C0C9
:1003A00014BC15BC24B5226024BD25B5216025BD33
:1003B000E0E1F2E0E491F0E0EE0FFF1FE251FE4FCA
:1003C00025913491E0EBF1E0E491E093C302E0EB9E
:1003D000F1E02491E0E1F2E04491442399F050E00F
:1003E000440F551FFA01E257FE4FA591B491FA014F
:1003F000E251FE4F459154913FB7F894EC91E22BB6
:10040000EC933FBF6C01F12CE12C60E072E18AE7D4
:1004100090E0A70196010E94BD0849015A01BA0166
:10042000A90141505109610971098C2F8D7F09F093
:1004300052C14F3F51056105710509F00CF430C1FF
:1004400060E472E48FE090E0A70196010E94BD088D
:10045000BA01A9014150510961097109C23009F07D
:10046000DCC092E04F3F51056105710509F00CF4C5
:1004700063C060E970ED83E090E0A70196010E94FF
:10048000BD08BA01A901415051096109710993E000
:100490004F3F51056105710509F00CF44DC068E44A
:1004A00078EE81E090E0A70196010E94BD08BA01B4
:1004B000A901415051096109710994E04F3F51056B
:1004C00061057105C9F1C4F164E274EF80E090E068
:1004D000A70196010E94BD08BA01A9014150510926
:1004E0006109710995E04F3F51056105710521F1E1
:1004F00018F162E17AE780E090E0A70196010E949E
:10050000BD08BA01A901415051096109710996E07C
:100510004F3F51056105710579F070F0B501A401F7
:100520009AE075956795579547959A95D1F74150FB
:1005300051096109710997E08091B100887F982B7A
:100540009093B100C23009F458C10CF04FC1CC23D4
:1005500009F4ADC0C13009F0BECEDBC01092B000CE
:100560001092B1002091B00022602093B000209141
:10057000B10021602093B100E0E1F2E0E491F0E00D
:10058000EE0FFF1FE251FE4F259134913093C102CF
:100590002093C002E0EBF1E0E491E093BF0217CFBB
:1005A0001092900010929100209191002860209369
:1005B000910020919100216020939100E0E1F2E010
:1005C000E491F0E0EE0FFF1FE251FE4F25913491D0
:1005D000E0EBF1E0E491E093BE02C3E0F8CE1092CC
:1005E000A0001092A1002091A10028602093A100FA
:1005F0002091A10021602093A100E0E1F2E0E491CC
:10060000F0E0EE0FFF1FE251FE4F25913491E0EB39
:10061000F1E0E491E093BD02DACE4F3F5105610570
:10062000710509F00CF455C068E478EE81E090E0C3
:10063000A70196010E94BD08BA01A90141505109C4
:100640006109710994E0C1114ECF93E04F3F51050C
:100650006105710541F13CF162E17AE780E090E0EB
:10066000A70196010E94BD08BA01A9014150510994
:100670006109710994E04F3F51056105710599F0D9
:1006800090F0B501A4018AE0759567955795479557
:100690008A95D1F7415051096109710995E003C06C
:1006A00091E0C11149CF85B5887F982B95BD47BD95
:1006B0008FEF9FEFDC018093D8029093D902A09333
:1006C000DA02B093DB0280916E00826080936E004C
:1006D00002CE92E0E6CF91E04115510581E0680736
:1006E00071057CF068E478EE81E090E0A701960166
:1006F0000E94BD08BA01A90141505109610971095F
:1007000093E0C130D9F480918100887F892B809358
:10071000810050938900409388008FEF9FEFDC01A8
:100720008093D4029093D502A093D602B093D702BF
:1007300080916F00826080936F00CDCDC330D9F47B
:1007400080919100887F892B80939100509399002C
:10075000409398008FEF9FEFDC018093CC02909341
:10076000CD02A093CE02B093CF028091710082603F
:1007700080937100B0CDC430D9F48091A100887FFE
:10078000892B8093A1005093A9004093A8008FEF7C
:100790009FEFDC018093C8029093C902A093CA0224
:1007A000B093CB028091720082608093720093CDEF
:1007B000C53009F0C7CE80912101887F892B8093B5
:1007C000210150932901409328018FEF9FEFDC0115
:1007D0008093C4029093C502A093C602B093C7024F
:1007E0008091730082608093730075CDC43059F29C
:1007F0000CF4ACCFC53029F36ECD4093B3008FEF2E
:100800009FEFDC018093D0029093D102A093D2029B
:10081000B093D302809170008260809370005BCDB2
:1008200090910002891311C0EEE4F2E0E4919FEF91
:1008300090930002E23009F44FC008F038C0EE2374
:1008400009F441C0E13009F441C0282F30E0F9013A
:10085000E85BFE4F9491F901E855FE4F4491285F03
:100860003D4FF9012491222309F467C0992309F42B
:1008700055C09150923108F051C0E92FF0E088271F
:10088000EB5BFB4F8F4F0C94DC08A604AA04890491
:100890009E04A2048E04AD04B304B704BD04C104D5
:1008A000C504CB04CF048E04D304D904DD04E430A2
:1008B00051F118F1E53009F0C8CF909173009D7F98
:1008C00090937300C2CF10926E00BFCF90916F00D3
:1008D0009D7F90936F00B9CF909170009D7F909312
:1008E000700091E09093B0009091B100987F946077
:1008F0009093B1001092B300A8CF909171009D7FAA
:1009000090937100A2CF909172009D7F909372009E
:100910009CCF809180008F7780938000E22FF0E061
:10092000EE0FFF1FE251FE4FA591B4918FB7F894DF
:10093000EC9140954E234C938FBF08958091800099
:100940008F7DEACF80918000877FE6CF84B58F7757
:1009500084BDE4CF84B58F7DFBCF8091B0008F77CD
:100960008093B000DBCF8091B0008F7DF9CF809174
:1009700090008F7780939000D1CF809190008F7DF1
:10098000F9CF80919000877FF5CF8091A0008F777D
:100990008093A000C3CF8091A0008F7DF9CF80917C
:1009A000A000877FF5CF809120018F778093200171
:1009B000B5CF809120018F7DF9CF80912001877F75
:1009C000F5CFAF92BF92CF92DF92EF92FF920F934B
:1009D0001F93CF93DF936C017B018B01040F151FD5
:1009E000EB015E01AE18BF08C017D10759F069913D
:1009F000D601ED91FC910190F081E02DC601199591
:100A0000892B79F7C501DF91CF911F910F91FF904D
:100A1000EF90DF90CF90BF90AF900895FC01538D81
:100A2000448D252F30E0842F90E0821B930B5417C8
:100A300010F0CF96089501970895FC01918D828D55
:100A4000981761F0A28DAE0FBF2FB11D5D968C91EE
:100A5000928D9F5F9F73928F90E008958FEF9FEF2D
:100A60000895FC01918D828D981731F0828DE80FE9
:100A7000F11D858D90E008958FEF9FEF0895FC01A3
:100A8000918D228D892F90E0805C9F4F821B910970
:100A90008F73992708958FE192E00E943F0521E02E
:100AA000892B09F420E0822F0895FC01A48DA80F62
:100AB000B92FB11DA35ABF4F2C91848D90E00196A0
:100AC0008F739927848FA689B7892C93A089B189C0
:100AD0008C91837080648C93938D848D981306C061
:100AE0000288F389E02D80818F7D80830895EF92C5
:100AF000FF920F931F93CF93DF93EC0181E0888FD8
:100B00009B8D8C8D98131AC0E889F989808185FFA7
:100B100015C09FB7F894EE89FF896083E889F98949
:100B200080818370806480839FBF81E090E0DF914B
:100B3000CF911F910F91FF90EF900895F62E0B8D9E
:100B400010E00F5F1F4F0F731127E02E8C8D8E1159
:100B50000CC00FB607FCFACFE889F989808185FFC0
:100B6000F5CFCE010E945505F1CFEB8DEC0FFD2F97
:100B7000F11DE35AFF4FF0829FB7F8940B8FEA897B
:100B8000FB8980818062CFCFCF93DF93EC01888D8A
:100B90008823B9F0AA89BB89E889F9898C9185FDF8
:100BA00003C0808186FD0DC00FB607FCF7CF8C9186
:100BB00085FFF2CF808185FFEDCFCE010E945505E4
:100BC000E9CFDF91CF91089580E090E0892B29F063
:100BD0000E944B0581110E94000080E090E0892B6B
:100BE00049F080E090E0892B29F00E9400008111FB
:100BF0000E94000080E090E0892B49F080E090E0C6
:100C0000892B29F00E94000081110E94000080E0E1
:100C100090E0892B49F080E090E0892B29F00E9438
:100C2000000081110C94000008958F929F92AF9262
:100C3000BF920F931F93CF93DF93CDB7DEB7A197EA
:100C40000FB6F894DEBF0FBECDBF19A2423008F434
:100C50004AE08E010F5D1F4F842E912CB12CA12CE8
:100C6000A50194010E949B08E62FB901CA01EA3050
:100C700044F5E05DD801EE938D01232B242B252B29
:100C800079F790E080E0109769F0FD010190002075
:100C9000E9F73197AF014A1B5B0BBD018FE192E091
:100CA0000E94E104A1960FB6F894DEBF0FBECDBF3F
:100CB000DF91CF911F910F91BF90AF909F908F9038
:100CC0000895E95CD7CF1F920F920FB60F921124AF
:100CD0002F933F938F939F93AF93BF9380911B026A
:100CE00090911C02A0911D02B0911E0230911A0237
:100CF00023E0230F2D3758F50196A11DB11D209338
:100D00001A0280931B0290931C02A0931D02B093C1
:100D10001E028091160290911702A0911802B091C4
:100D200019020196A11DB11D80931602909317021E
:100D3000A0931802B0931902BF91AF919F918F9128
:100D40003F912F910F900FBE0F901F90189526E89E
:100D5000230F0296A11DB11DD2CF1F920F920FB685
:100D60000F9211240BB60F922F933F934F935F93E3
:100D70006F937F938F939F93AF93BF93EF93FF9363
:100D80008091D0029091D102A091D202B091D30271
:100D9000892B8A2B8B2BE1F19091BF02E091C0024D
:100DA000F091C1028081892780838091D002909147
:100DB000D102A091D202B091D302181619061A06D8
:100DC0001B069CF48091D0029091D102A091D20296
:100DD000B091D3020197A109B1098093D0029093F9
:100DE000D102A093D202B093D302FF91EF91BF91B1
:100DF000AF919F918F917F916F915F914F913F91B3
:100E00002F910F900BBE0F900FBE0F901F90189553
:100E1000809100020E941004E8CF1F920F920FB63B
:100E20000F9211240BB60F922F933F934F935F9322
:100E30006F937F938F939F93AF93BF93EF93FF93A2
:100E40008FE192E00E945505FF91EF91BF91AF9124
:100E50009F918F917F916F915F914F913F912F91D2
:100E60000F900BBE0F900FBE0F901F9018951F9202
:100E70000F920FB60F9211240BB60F922F938F93F0
:100E80009F93EF93FF93E0912F02F09130028081C6
:100E9000E0913502F091360282FD1DC09081809173
:100EA00038028F5F8F7320913902821741F0E091F1
:100EB0003802F0E0E15EFD4F958F80933802FF919C
:100EC000EF919F918F912F910F900BBE0F900FBEBE
:100ED0000F901F9018958081F2CF789484B582602E
:100EE00084BD84B5816084BD85B5826085BD85B5CE
:100EF000816085BD80916E00816080936E0010924C
:100F000081008091810082608093810080918100C6
:100F10008160809381008091800081608093800057
:100F20008091B10084608093B1008091B0008160B5
:100F30008093B000809191008260809391008091B5
:100F400091008160809391008091900081608093F6
:100F500090008091A10082608093A1008091A10007
:100F600081608093A1008091A00081608093A000A7
:100F70008091210182608093210180912101816013
:100F800080932101809120018160809320018091D4
:100F90007A00846080937A0080917A0082608093E6
:100FA0007A0080917A00816080937A0080917A0043
:100FB000806880937A001092C100E0912F02F09136
:100FC000300282E08083E0912B02F0912C021082AB
:100FD000E0912D02F0912E028FEC80831092370267
:100FE000E0913302F091340286E08083E091310297
:100FF000F0913202808180618083E0913102F09132
:101000003202808188608083E0913102F091320267
:10101000808180688083E0913102F091320280818A
:101020008F7D808310E480917B00877F80937B009D
:1010300010937C0080917A00806480937A00809184
:101040007A0086FDFCCFC0917800D09179006E01C6
:101050000D2E000CEE08FF084AE0C701B601F7FEAE
:101060000DC06DE28FE192E00E9477056627772739
:10107000CB016C197D098E099F094AE00E94150673
:1010800042E050E063E172E08FE192E00E94E1040F
:1010900086E091E0CF3F23E0D20741F0CE018255B8
:1010A0009340813A910538F486E291E00E945C0118
:1010B0000E94E405B8CFCE01845691098F3E92403C
:1010C00018F48AE491E0F2CFCA55D1098DE591E098
:1010D0002B9760F388E00E941004EACFEFE1F2E082
:1010E0001382128288EE93E0A0E0B0E084839583BF
:1010F000A683B78385E092E09183808385EC90E0BE
:101100009587848784EC90E09787868780EC90E0D1
:10111000918B808B81EC90E0938B828B82EC90E0C2
:10112000958B848B86EC90E0978B868B118E128E3C
:10113000138E148E0895A1E21A2EAA1BBB1BFD016B
:101140000DC0AA1FBB1FEE1FFF1FA217B307E407A6
:10115000F50720F0A21BB30BE40BF50B661F771FFE
:10116000881F991F1A9469F76095709580959095DE
:101170009B01AC01BD01CF010895052E97FB1EF424
:1011800000940E94D40857FD07D00E949B0807FCDA
:1011900003D04EF40C94D408509540953095219589
:1011A0003F4F4F4F5F4F0895909580957095619593
:1011B0007F4F8F4F9F4F0895EE0FFF1F881F8BBFEC
:0C11C0000790F691E02D1994F894FFCFF1
:1011CC00FF000000007705E1040E05C4053F051D76
:0611DC000531050D0A00BB
:00000001FF
