:100000000C944A010C947B010C947B010C947B01B1
:100010000C947B010C947B010C947B010C947B0170
:100020000C947B010C947B010C947B010C947B0160
:100030000C947B010C947B010C947B010C947B0150
:100040000C947B010C947B010C947B010C947B0140
:100050000C947B010C947B010C947B010C94DE04CA
:100060000C947B010C9452050C9428050C947B0194
:100070000C947B010C947B010C947B010C947B0110
:100080000C947B010C947B010C947B010C947B0100
:100090000C947B010C947B010C947B010C947B01F0
:1000A0000C947B010C947B010C947B010C947B01E0
:1000B0000C947B010C947B010C947B010C947B01D0
:1000C0000C947B010C947B010C947B010C947B01C0
:1000D0000C947B010C947B010C947B010C947B01B0
:1000E0000C947B010C9422020C940A020C9465037C
:1000F0000C94B8020C94F2010C9418020C94920225
:100100000C9480020C94D1010C9467020C9474033B
:100110000C94AE020C94F8010C949A020C945F02B9
:100120000C94CE030C941B040C946C020C94E3010D
:100130000C94E5020C948A020C94F9020C94D706F4
:100140000C94E7010C9476020C9410020C940602B5
:100150000C9414020C94DB020C94A4020C94020282
:100160000C94EF010C94D1020C94EB010C94CC0193
:100170000C94FC010C9488030C9496030C943803A3
:100180000C94EF020C94C7020C941E0200000A0BA0
:1001900002090C0D0E080703040100000000000016
:1001A000000000000000000000000000000000004F
:1001B000000000000000000012111000000000000C
:1001C000000000000000000000000000000000002F
:1001D000000000002200250028002B002E00310026
:1001E000340002010000050108010B01000021009C
:1001F000240027002A002D003000330001010000F8
:10020000040107010A010505050507050808080896
:10021000020202020A0A080804040404010101019E
:100220000101010103030303030303030407070799
:100230000C0C0C0C0C0C0C0C02020202060606063E
:10024000060606060B0B0B0B0B0B0B0B010210200B
:1002500020080810204010204080020102010804FC
:100260000201010204081020408080402010080490
:1002700002018004020180402010080402010804E9
:10028000020101020408102040800102040810202D
:100290004080D70611241FBECFEFD1E2DEBFCDBF15
:1002A00000E00CBF12E0A0E0B2E0E0E6FEE000E01B
:1002B0000BBF02C007900D92A035B107D9F722E01D
:1002C000A0E5B2E001C01D92AA3FB207E1F711E03C
:1002D000CAE4D1E000E006C021970109802FFE01A9
:1002E0000E942607C934D10780E00807A9F70E94B9
:1002F00088050C942E070C94000090E0FC01E45B50
:10030000FD4F24918A5F9D4FFC018491882399F0D1
:1003100090E0880F991FFC01E451FE4FA591B49124
:10032000FC01EE52FE4F859194918FB7F894EC91B9
:10033000E22BEC938FBF0895282F30E0F901E457AA
:10034000FE4F9491F901E45BFD4F44912A5F3D4FCC
:10035000F9012491222309F435C0992311F1915018
:100360009231F8F4E92FF0E08827E654FE4F8F4FE2
:100370000C942607EB01EF01CC01E301E701D10169
:10038000F201F801FC01020206020A021002140244
:10039000D10118021E022202809180008F77809383
:1003A0008000E22FF0E0EE0FFF1FEE52FE4FA5910E
:1003B000B4918FB7F894EC91611148C040954E23E9
:1003C0004C938FBF0895809180008F7DE8CF8091FE
:1003D0008000877FE4CF84B58F7784BDE2CF84B57A
:1003E0008F7DFBCF8091B0008F778093B000D9CF05
:1003F0008091B0008F7DF9CF809190008F778093AE
:100400009000CFCF809190008F7DF9CF80919000A8
:10041000877FF5CF8091A0008F778093A000C1CF18
:100420008091A0008F7DF9CF8091A000877FF5CFCC
:10043000809120018F7780932001B3CF809120019C
:100440008F7DF9CF80912001877FF5CF4E2BB8CFDC
:100450001F93CF93DF93182FEB010E947D0120970C
:1004600039F460E0812FDF91CF911F910C949C01B2
:10047000CF3FD10511F461E0F5CFE12FF0E0E45773
:10048000FE4FE491E150E23108F0B3C0F0E088277C
:10049000E35BFD4F8F4F0C9426075F0267026C02EF
:1004A00076028002F9028A0292029A02A402AE0245
:1004B000B802C702D102F902DB02E502EF0284B5FD
:1004C000806884BDC7BDDF91CF911F91089584B529
:1004D000806284BDC8BDF7CF809180008068809322
:1004E0008000D0938900C0938800EDCF8091800078
:1004F000806280938000D0938B00C0938A00E3CF0A
:1005000080918000886080938000D0938D00C0939C
:100510008C00D9CF8091B00080688093B000C093E8
:10052000B300D1CF8091B00080628093B000C093BF
:10053000B400C9CF80919000806880939000D093E0
:100540009900C0939800BFCF809190008062809303
:100550009000D0939B00C0939A00B5CF80919000FB
:10056000886080939000D0939D00C0939C00ABCF97
:100570008091A00080688093A0008091A0008F7B74
:100580008093A000D093A900C093A8009CCF809135
:10059000A00080628093A000D093AB00C093AA001B
:1005A00092CF8091A00088608093A000D093AD008E
:1005B000C093AC0088CF8091200180688093200197
:1005C000D0932901C09328017ECF809120018062C1
:1005D00080932001D0932B01C0932A0174CF809186
:1005E0002001886080932001D0932D01C0932C01BD
:1005F0006ACFC038D1050CF03ECF33CFCF93DF9315
:10060000D82FC62F6FEF70E08BE00E9428026D2F6D
:1006100070E08AE00E9428026C2F70E089E0DF9190
:10062000CF910C9428023FB7F89480915902909191
:100630005A02A0915B02B0915C0226B5A89B05C04E
:100640002F3F19F00196A11DB11D3FBFBA2FA92F51
:10065000982F8827BC01CD01620F711D811D911D4E
:1006600042E0660F771F881F991F4A95D1F70895BA
:10067000AF92BF92CF92DF92EF92FF920F931F93B0
:10068000CF93DF936C017B018B01040F151FEB01EE
:100690005E01AE18BF08C017D10759F06991D601A5
:1006A000ED91FC910190F081E02DC6011995892B07
:1006B00079F7C501DF91CF911F910F91FF90EF90D6
:1006C000DF90CF90BF90AF900895FC01538D448D83
:1006D000252F30E0842F90E0821B930B541710F0ED
:1006E000CF96089501970895FC01918D828D9817FA
:1006F00061F0A28DAE0FBF2FB11D5D968C91928DD2
:100700009F5F9F73928F90E008958FEF9FEF089502
:10071000FC01918D828D981731F0828DE80FF11DCB
:10072000858D90E008958FEF9FEF0895FC01918DE6
:10073000228D892F90E0805C9F4F821B91098F73DF
:10074000992708958DE592E00E94960321E0892B78
:1007500009F420E0822F0895FC01A48DA80FB92F81
:10076000B11DA35ABF4F2C91848D90E001968F73D9
:100770009927848FA689B7892C93A089B1898C91F8
:10078000837080648C93938D848D981306C0028847
:10079000F389E02D80818F7D80830895EF92FF9211
:1007A0000F931F93CF93DF93EC0181E0888F9B8D94
:1007B0008C8D98131AC0E889F989808185FF15C04E
:1007C0009FB7F894EE89FF896083E889F989808171
:1007D0008370806480839FBF81E090E0DF91CF9140
:1007E0001F910F91FF90EF900895F62E0B8D10E062
:1007F0000F5F1F4F0F731127E02E8C8D8E110CC0D1
:100800000FB607FCFACFE889F989808185FFF5CF1B
:10081000CE010E94AC03F1CFEB8DEC0FFD2FF11D4B
:10082000E35AFF4FF0829FB7F8940B8FEA89FB8958
:1008300080818062CFCFCF93DF93EC01888D8823B6
:10084000B9F0AA89BB89E889F9898C9185FD03C033
:10085000808186FD0DC00FB607FCF7CF8C9185FF18
:10086000F2CF808185FFEDCFCE010E94AC03E9CFAE
:10087000DF91CF91089580E090E0892B29F00E94CC
:10088000A20381110E94000080E090E0892B49F0D2
:1008900080E090E0892B29F00E94000081110E94E5
:1008A000000080E090E0892B49F080E090E0892B07
:1008B00029F00E94000081110E94000080E090E079
:1008C000892B49F080E090E0892B29F00E940000FC
:1008D00081110C9400000895FC0101900020E9F7BB
:1008E0003197AF01481B590BBC018DE592E00C9488
:1008F00038038F929F92AF92BF920F931F93CF9323
:10090000DF93CDB7DEB7A1970FB6F894DEBF0FBE69
:10091000CDBF19A2423008F44AE08E010F5D1F4F8F
:10092000842E912CB12CA12CA50194010E940407C6
:10093000E62FB901CA01EA30F4F4E05DD801EE9384
:100940008D01232B242B252B79F790E080E0109745
:1009500019F0CD010E946C04A1960FB6F894DEBF89
:100960000FBECDBFDF91CF911F910F91BF90AF9080
:100970009F908F900895E95CE1CFCF92DF92EF9244
:10098000FF92CF93DF936B017C016DE28DE592E0E6
:100990000E94CE03EC0166277727CB016C197D09F5
:1009A0008E099F094AE00E9479048C0F9D1FDF91F8
:1009B000CF91FF90EF90DF90CF9008951F920F920C
:1009C0000FB60F9211242F933F938F939F93AF9362
:1009D000BF938091550290915602A0915702B09119
:1009E00058023091540223E0230F2D3758F5019619
:1009F000A11DB11D2093540280935502909356027D
:100A0000A0935702B09358028091590290915A02D4
:100A1000A0915B02B0915C020196A11DB11D809373
:100A2000590290935A02A0935B02B0935C02BF916B
:100A3000AF919F918F913F912F910F900FBE0F908B
:100A40001F90189526E8230F0296A11DB11DD2CF45
:100A50001F920F920FB60F9211240BB60F922F9385
:100A60003F934F935F936F937F938F939F93AF9336
:100A7000BF93EF93FF938DE592E00E94AC03FF914B
:100A8000EF91BF91AF919F918F917F916F915F9106
:100A90004F913F912F910F900BBE0F900FBE0F9073
:100AA0001F9018951F920F920FB60F9211240BB63C
:100AB0000F922F938F939F93EF93FF93E0916D028B
:100AC000F0916E028081E0917302F091740282FDD8
:100AD0001DC09081809176028F5F8F732091770285
:100AE000821741F0E0917602F0E0E35AFD4F958FD6
:100AF00080937602FF91EF919F918F912F910F90AC
:100B00000BBE0F900FBE0F901F9018958081F2CFF3
:100B1000789484B5826084BD84B5816084BD85B5D8
:100B2000826085BD85B5816085BD80916E008160E4
:100B300080936E001092810080918100826080938A
:100B4000810080918100816080938100809180008C
:100B50008160809380008091B10084608093B100B7
:100B60008091B00081608093B0008091910082609C
:100B70008093910080919100816080939100809199
:100B800090008160809390008091A10082608093AA
:100B9000A1008091A10081608093A1008091A000BC
:100BA00081608093A0008091210182608093210167
:100BB00080912101816080932101809120018160D9
:100BC0008093200180917A00846080937A008091E4
:100BD0007A00826080937A0080917A0081608093AD
:100BE0007A0080917A00806880937A001092C10028
:100BF000E0916D02F0916E0282E08083E0916902E3
:100C0000F0916A021082E0916B02F0916C0280E137
:100C1000808310927502E0917102F091720286E079
:100C20008083E0916F02F091700280818061808307
:100C3000E0916F02F0917002808188608083E09182
:100C40006F02F0917002808180688083E0916F0272
:100C5000F091700280818F7D80838BE00E947D0106
:100C60008AE00E947D0189E00E947D01C0E48091BC
:100C70007B00877F80937B00C0937C0080917A000B
:100C8000806480937A0080917A0086FDFCCF809109
:100C9000780090917900909353028093520282E100
:100CA00092E00E946C048EE292E00E946C046091DB
:100CB000520270915302072E000C880B990B97FF7C
:100CC00068C00E94BD048EE292E00E946C04809194
:100CD00052029091530297FD0396959587959595AD
:100CE0008795909351028093500281E392E00E9495
:100CF0006C048EE292E00E946C046091500270914C
:100D00005102072E000C880B990B97FF46C00E94DA
:100D1000BD048EE292E00E946C0480915202909198
:100D200053029C01215031096FEF2C34314038F0CF
:100D30009C012D5431402D34314098F560E08FEF07
:100D40000E94FE020E9413034B015C018AEFC82E31
:100D5000D12CE12CF12C0E941303681979098A091E
:100D60009B09683E734081059105A8F341E0C41AD0
:100D7000D108E108F10888EE880E83E0981EA11CD6
:100D8000B11CC114D104E104F10429F70E943B0411
:100D90006ECF4AE00E94790496CF4AE00E9479041F
:100DA000B8CF8A39924074F260E080E0C9CFEDE5B7
:100DB000F2E01382128288EE93E0A0E0B0E0848338
:100DC0009583A683B78384E092E09183808385EC4A
:100DD00090E09587848784EC90E09787868780EC05
:100DE00090E0918B808B81EC90E0938B828B82ECF6
:100DF00090E0958B848B86EC90E0978B868B118EA0
:100E0000128E138E148E0895A1E21A2EAA1BBB1BFC
:100E1000FD010DC0AA1FBB1FEE1FFF1FA217B307C6
:100E2000E407F50720F0A21BB30BE40BF50B661FDC
:100E3000771F881F991F1A9469F7609570958095A0
:100E400090959B01AC01BD01CF010895EE0FFF1FEE
:100E5000881F8BBF0790F691E02D1994F894FFCF6F
:100E600000000000CE03380365031B0496037403DF
:100E700088035261772053656E736F722056616CE0
:100E8000756573202D204C696768743A20000D0A3F
:100E9000004D61707065642053656E736F722056EB
:100EA000616C756573202D204C696768743A200069
:00000001FF
