:100000000C9418010C9439010C9439010C943901A9
:100010000C9439010C9439010C9439010C94390178
:100020000C9439010C9439010C9439010C94390168
:100030000C9439010C946B020C9439010C94390125
:100040000C9439010C9439010C9439010C94390148
:100050000C9439010C9439010C9439010C9421024F
:100060000C9439010C9439010C9439010C94390128
:100070000C9439010C9439010C9439010C94390118
:100080000C9439010C9439010C9439010C94390108
:100090000C9439010C9439010C9439010C943901F8
:1000A0000C9439010C9439010C9439010C943901E8
:1000B0000C9439010C9439010C9439010C943901D8
:1000C0000C9439010C9439010C9439010C943901C8
:1000D0000C9439010C9439010C9439010C943901B8
:1000E0000C9439010C94EC010C94DA010C94F60197
:1000F0000C94A0010C94D0010C94CC010C94A5019B
:100100000C94E4010C94DE010C94C3010C94BF0127
:100110000C94BB010C94E8010C94F2010C94B7010F
:100120000C94D6010C94C6010200000A0B02090CC3
:100130000D0E08070304010000000000000000008D
:1001400000000000000000000000000000000000AF
:10015000000000000012111000000000000000006C
:10016000000000000000000000000000000000008F
:10017000002200250028002B002E00310034000250
:10018000010000050108010B0100002100240027E7
:10019000002A002D00300033000101000004010797
:1001A000010A0105050505070508080808020202FD
:1001B000020A0A0808040404040101010101010102
:1001C000010303030303030303040707070C0C0CD9
:1001D0000C0C0C0C0C0202020206060606060606B1
:1001E000060B0B0B0B0B0B0B0B010210202008084E
:1001F0001020401020408002010201080402010189
:100200000204081020408080402010080402018071
:1002100004020180402010080402010804020101C8
:1002200002040810204080010204081020408000D1
:1002300011241FBECFEFD1E2DEBFCDBF00E00CBF67
:1002400012E0A0E0B2E0E6E9FEE000E00BBF02C091
:1002500007900D92A430B107D9F722E0A4E0B2E0F4
:1002600001C01D92AF32B207E1F70E940A030C945D
:1002700049070C94000080917B00877F80937B006E
:1002800080E480937C0080917A00806480937A007F
:1002900080917A0086FDFCCF809178009091790062
:1002A000089590E0FC01E751FE4F24918D559E4F3B
:1002B000FC018491882399F090E0880F991FFC013C
:1002C000E757FE4FA591B491FC01E159FE4F85918E
:1002D00094918FB7F894EC91E22BEC938FBF089533
:1002E000282F30E0F901E75DFE4F9491F901E751C5
:1002F000FE4F44912D553E4FF9012491222309F4DC
:1003000035C0992311F191509231F8F4E92FF0E0C2
:100310008827E257FE4F8F4F0C944107BF01C3015E
:10032000A001B701BB01A501C601CC01D001D601D6
:10033000DA01DE01E401E801A501EC01F201F601B8
:10034000809180008F7780938000E22FF0E0EE0FA5
:10035000FF1FE159FE4FA591B4918FB7F894EC912E
:10036000611148C040954E234C938FBF08958091F2
:1003700080008F7DE8CF80918000877FE4CF84B5B7
:100380008F7784BDE2CF84B58F7DFBCF8091B000A5
:100390008F778093B000D9CF8091B0008F7DF9CF57
:1003A000809190008F7780939000CFCF80919000C4
:1003B0008F7DF9CF80919000877FF5CF8091A0004D
:1003C0008F778093A000C1CF8091A0008F7DF9CF5F
:1003D0008091A000877FF5CF809120018F77809357
:1003E0002001B3CF809120018F7DF9CF8091200132
:1003F000877FF5CF4E2BB8CF3FB7F89480912B0273
:1004000090912C02A0912D02B0912E0226B5A89BAE
:1004100005C02F3F19F00196A11DB11D3FBFBA2F96
:10042000A92F982F8827BC01CD01620F711D811D56
:10043000911D42E0660F771F881F991F4A95D1F7DB
:1004400008951F920F920FB60F9211242F933F938E
:100450008F939F93AF93BF9380912702909128022F
:10046000A0912902B0912A023091260223E0230FA5
:100470002D3758F50196A11DB11D209326028093BA
:10048000270290932802A0932902B0932A02809118
:100490002B0290912C02A0912D02B0912E02019678
:1004A000A11DB11D80932B0290932C02A0932D02CD
:1004B000B0932E02BF91AF919F918F913F912F9159
:1004C0000F900FBE0F901F90189526E8230F0296ED
:1004D000A11DB11DD2CF1F920F920FB60F92112402
:1004E0000BB60F922F933F934F935F936F937F932E
:1004F0008F939F93AF93BF93EF93FF9380911802D5
:1005000090911902A0911A02B0911B02892B8A2B9B
:100510008B2BE1F190910702E0910802F091090222
:100520008081892780838091180290911902A0917F
:100530001A02B0911B02181619061A061B069CF423
:100540008091180290911902A0911A02B0911B0299
:100550000197A109B1098093180290931902A09301
:100560001A02B0931B02FF91EF91BF91AF919F913F
:100570008F917F916F915F914F913F912F910F904C
:100580000BBE0F900FBE0F901F9018958091000228
:10059000E8E2F1E0E4919FEF90930002E230E9F0AD
:1005A00040F4EE2389F0E13091F060E00E947001A8
:1005B000DACFE43049F110F1E530B9F790917300EA
:1005C0009D7F90937300F1CF10926E00EECF9091CB
:1005D0006F009D7F90936F00E8CF909170009D7F9A
:1005E0009093700091E09093B0009091B100987F4B
:1005F00094609093B1001092B300D7CF90917100A6
:100600009D7F90937100D1CF909172009D7F9093C8
:100610007200CBCFCF93DF9300D000D000D0CDB706
:10062000DEB7789484B5826084BD84B5816084BD72
:1006300085B5826085BD85B5816085BD80916E0080
:10064000816080936E0010928100809181008260B1
:1006500080938100809181008160809381008091EE
:1006600080008160809380008091B10084608093DD
:10067000B1008091B00081608093B00080919100C2
:1006800082608093910080919100816080939100BD
:10069000809190008160809390008091A1008260A1
:1006A0008093A1008091A10081608093A10080913E
:1006B000A00081608093A0008091210182608093DE
:1006C000210180912101816080932101809120018D
:1006D00081608093200180917A00846080937A0009
:1006E00080917A00826080937A0080917A008160A4
:1006F00080937A0080917A00806880937A001092CB
:10070000C1008DE00E94510161E08DE00E94700106
:100710002FB7F8948091270290912802A091290286
:10072000B0912A022FBF88389341A105B105C8F4C2
:100730000E943B012091240230912502281739079D
:1007400024F4909325028093240220910102309199
:10075000020282179307E4F690930202809301024B
:10076000D7CF60E08DE00E94700128E4422E28EE91
:10077000522E66246394712C9BEA292E91E0392E27
:1007800001EF11E00E943B01C0900102D0900202F3
:100790000D2C000CEE08FF089C01990F440B550B23
:1007A0002C193D094E095F09AEE6BFE00E9405071E
:1007B0002091240230912502032E000C440B550B8E
:1007C0002C193D094E095F090E94E606DA01C901AC
:1007D000C296A11DB11D89839A83AB83BC8380918E
:1007E0000002883009F0C1C0E8E2F1E0F491F98735
:1007F000F7FDFAC188E00E945101F985FF2321F03D
:100800002985223009F01EC289809A80AB80BC8085
:10081000AA24BB2460E072E18AE790E0A50194017C
:100820000E94E6062D833E834F83588769017A0133
:1008300081E0C81AD108E108F1089FEFC916D10478
:10084000E104F10409F00CF4ADC160E472E48FE05E
:1008500090E0A50194010E94E60669017A01A1E0F9
:10086000CA1AD108E108F108B985B23009F050C1BF
:1008700082E0EFEFCE16D104E104F10409F00CF4AC
:100880006DC060E970ED83E090E0A50194010E94E5
:10089000E60669017A01F1E0CF1AD108E108F10812
:1008A00083E02FEFC216D104E104F10409F00CF447
:1008B00055C0C301B201A50194010E94E606690179
:1008C0007A01B1E0CB1AD108E108F10884E0EFEF3A
:1008D000CE16D104E104F10409F00CF43FC064E247
:1008E00074EF80E090E0A50194010E94E6066901A2
:1008F0007A01B1E0CB1AD108E108F10885E0AFEF49
:10090000CA16D104E104F10449F140F162E17AE749
:1009100080E090E0A50194010E94E60669017A0159
:1009200081E0C81AD108E108F10886E09FEFC916F6
:10093000D104E104F10491F088F0CD80DE80EF80F5
:10094000F8849AE0F594E794D794C7949A95D1F7F0
:1009500091E0C91AD108E108F10887E09091B1004F
:10096000987F892B8093B10025C18F3F09F03CC14E
:1009700088E080930002E8E2F1E0F491F9878F2F9C
:10098000FF3F09F431C1F23009F465C058F4FF2388
:1009900071F1F13009F442C087FD26C188E00E9460
:1009A00051012ECF2985243009F495C008F474C074
:1009B000253091F7109220011092210180912101A0
:1009C00088608093210180912101816080932101C1
:1009D000F1018491E82FF0E0EE0FFF1FE159FE4F87
:1009E00085919491F80184918093040203CF14BC03
:1009F00015BC84B5826084BD85B5816085BDF1017B
:100A00008491E82FF0E0EE0FFF1FE159FE4F859132
:100A10009491F801849180930B02ECCE10928000A7
:100A20001092810080918100886080938100809184
:100A30008100816080938100F1018491E82FF0E0D2
:100A4000EE0FFF1FE159FE4F85919491F8018491BB
:100A500080930A02CFCE1092B0001092B100809124
:100A6000B00082608093B0008091B100816080937B
:100A7000B100F1018491E82FF0E0EE0FFF1FE15982
:100A8000FE4F859194919093090280930802F8019A
:100A9000849180930702AECE109290001092910044
:100AA0008091910088608093910080919100816095
:100AB00080939100F1018491E82FF0E0EE0FFF1F89
:100AC000E159FE4F85919491F8018491809306023B
:100AD000F3E0F9878FCE1092A0001092A1008091D0
:100AE000A10088608093A1008091A1008160809323
:100AF000A100F1018491E82FF0E0EE0FFF1FE15912
:100B0000FE4F85919491F80184918093050272CEF5
:100B10008FEFC816D104E104F10409F00CF490C081
:100B2000C301B201A50194010E94E60669017A01A0
:100B300091E0C91AD108E108F108A98584E0A11162
:100B4000DECE83E0FFEFCF16D104E104F10471F1B2
:100B50006CF162E17AE780E090E0A50194010E94E7
:100B6000E60669017A01E1E0CE1AD108E108F10850
:100B700084E0FFEFCF16D104E104F104B9F0B0F046
:100B8000CD80DE80EF80F8848AE0F594E794D794F6
:100B9000C7948A95D1F7A1E0CA1AD108E108F108F3
:100BA00085E004C081E029852111D8CE95B5987FD4
:100BB000892B85BD29813A81220F331FA4E1B0E042
:100BC0000E94320728EE33E040E050E00E94100718
:100BD0008985823009F4C6C00CF088C0882309F4E6
:100BE000A0C0813009F4ACC00E94FC014B015C0143
:100BF0002AE0C22ED12CE12CF12C0E94FC016819B4
:100C000079098A099B09683E734081059105A8F31B
:100C1000A1E0CA1AD108E108F108B8EE8B0EB3E0E2
:100C20009B1EA11CB11CC114D104E104F10429F7DD
:100C300080E090E0892B09F4A5CD0E9400009CCDB6
:100C400082E0B1CF89809A80AB80BC80AA24BB248B
:100C500060E072E18AE790E0A50194010E94E60657
:100C600069017A0181E0C81AD108E108F108C114CC
:100C7000D10491E0E906F1045CF491E0B985B1306A
:100C8000B1F480918100887F892B8093810092CF7D
:100C9000C301B201A50194010E94E60669017A012F
:100CA000A1E0CA1AD108E108F10893E0E7CFE9858D
:100CB000E33039F480919100887F892B80939100F3
:100CC00079CFF985F43039F48091A100887F892BA0
:100CD0008093A1006FCF2985253009F06BCF8091DB
:100CE0002101887F892B8093210164CF99859430DD
:100CF00009F45AC00CF446C0953009F075CFD09273
:100D00002901C092280120930C0230930D024093D8
:100D10000E0250930F0280917300826080937300E3
:100D200063CFC7BC2093200230932102409322025C
:100D30005093230280916E00826080936E0054CFA6
:100D4000D0928900C092880020931C0230931D022B
:100D500040931E0250931F0280916F008260809327
:100D60006F0042CFC092B300209318023093190253
:100D700040931A0250931B0280917000826080930E
:100D8000700032CFD0929900C09298002093140244
:100D90003093150240931602509317028091710010
:100DA00082608093710020CFD092A900C092A800E9
:100DB00020931002309311024093120250931302B9
:100DC000809172008260809372000ECF052E97FB97
:100DD0001EF400940E94FD0657FD07D00E941007E4
:100DE00007FC03D04EF40C94FD06509540953095C9
:100DF00021953F4F4F4F5F4F089590958095709587
:100E000061957F4F8F4F9F4F08950E943207A59F96
:100E1000900DB49F900DA49F800D911D11240895F5
:100E2000A1E21A2EAA1BBB1BFD010DC0AA1FBB1FEE
:100E3000EE1FFF1FA217B307E407F50720F0A21B60
:100E4000B30BE40BF50B661F771F881F991F1A94CD
:100E500069F760957095809590959B01AC01BD01F7
:100E6000CF010895A29FB001B39FC001A39F700D51
:100E7000811D1124911DB29F700D811D1124911DA2
:100E80000895EE0FFF1F881F8BBF0790F691E02D8E
:060E90001994F894FFCF55
:040E9600FFFF030057
:00000001FF
